:100000000C945B000C9483000C9483000C9483008C
:100010000C9483000C9483000C9483000C94830054
:100020000C9483000C9483000C9483000C94830044
:100030000C9483000C9483000C9483000C94830034
:100040000C9489020C9483000C9495040C94830006
:100050000C9483000C9483000C9483000C94830014
:100060000C9483000C948300000024272A000025B0
:10007000282B000023262904040404040404040299
:100080000202020202030303030303010204081035
:100090002040800102040810200102040810200002
:1000A0000000070002010000030406000000000039
:1000B00000000000E10011241FBECFEFD4E0DEBF3E
:1000C000CDBF11E0A0E0B1E0ECE7FAE002C005909E
:1000D0000D92A234B107D9F711E0A2E4B1E001C05A
:1000E0001D92A03DB107E1F710E0C6EBD0E004C0DF
:1000F0002297FE010E943805C43BD107C9F70E9430
:10010000DA000C943C050C94000060E071E082E49D
:1001100091E00E9449010895EF92FF920F931F937F
:10012000CF93DF937C0100E010E00DC0C0E0D0E091
:1001300061E081E00E946603219683E0C83ED80713
:10014000B9F70F5F1F4F0E151F0584F3DF91CF9195
:100150001F910F91FF90EF9008950F931F9302E46A
:1001600011E040E855E260E070E0C8010E94F5004F
:1001700067E271E0C8010E940A0188EE93E00E94E4
:100180008C006BE271E0C8010E94490161E371E0FB
:10019000C8010E94490166E371E0C8010E9449015B
:1001A00040E05BE460E070E0C8010E94F5001F9150
:1001B0000F9108950E942C030E94AD000E948500BB
:1001C000FDCF8FE391E09093430180934201089526
:1001D000862F0E94540408950E948C0408950E9462
:1001E0006D0408950E945C040895CB01BA010E9439
:1001F0001B040895DC01ED91FC910190F081E02D4C
:1002000009950895DC01ED91FC910190F081E02DBC
:10021000099508950F931F93CF93DF938C01EB0102
:1002200009C02196D801ED91FC910190F081E02D5B
:10023000C801099568816623A1F7DF91CF911F91CD
:100240000F9108950F931F938C01DC01ED91FC91A8
:100250000190F081E02D6DE00995D801ED91FC91C0
:100260000190F081E02D6AE0C80109951F910F917E
:1002700008950F931F938C01DC01ED91FC91019087
:10028000F081E02D0995C8010E9422011F910F9174
:1002900008950F931F938C010E940A01C8010E94C8
:1002A00022011F910F9108950F931F938C01DC0180
:1002B000ED91FC910190F081E02D0995C8010E941B
:1002C00022011F910F9108952F923F924F925F92BA
:1002D0006F927F928F929F92AF92BF92CF92DF9256
:1002E000EF92FF920F931F93DF93CF93CDB7DEB7BB
:1002F000A0970FB6F894DEBF0FBECDBF1C016A01F8
:100300007B01411551056105710549F4DC01ED9151
:10031000FC910190F081E02D60E3099554C08824A0
:1003200099245401422E55246624772401E010E0DC
:100330000C0F1D1F080D191DC701B601A301920165
:100340000E94E504F80160830894811C911CA11CA3
:10035000B11CC701B601A30192010E94E504C901C5
:10036000DA016C017D01C114D104E104F104F1F65C
:1003700081E0E82EF12CEC0EFD1EE80CF91C3E018C
:100380000894611C711CD501C4010197A109B10930
:100390006C01C818D90814C0F601EE0DFF1D60816C
:1003A0006A3010F4605D01C0695CD101ED91FC918F
:1003B0000190F081E02DC10109950894E108F10850
:1003C0006E147F0449F7A0960FB6F894DEBF0FBEF7
:1003D000CDBFCF91DF911F910F91FF90EF90DF90F4
:1003E000CF90BF90AF909F908F907F906F905F90D5
:1003F0004F903F902F9008952AE00E946401089545
:100400000F931F938C010E94FC01C8010E942201DE
:100410001F910F910895AB0160E070E00E94FC0114
:1004200008950F931F938C01AB0160E070E00E9470
:10043000FC01C8010E9422011F910F910895EF92C3
:10044000FF920F931F93CF93DF93EC017A018B01FF
:1004500077FF0FC0E881F9810190F081E02D6DE216
:10046000099510950095F094E094E11CF11C011D94
:10047000111D2AE0B801A701CE010E946401DF919D
:10048000CF911F910F91FF90EF9008950F931F93BD
:100490008C010E941F02C8010E9422011F910F912E
:1004A0000895AB01662757FD6095762F0E941F02C5
:1004B00008950F931F938C01AB01662757FD60953C
:1004C000762F0E941F02C8010E9422011F910F91E6
:1004D0000895DC012115310541F4ED91FC91019065
:1004E000F081E02D642F099508952A30310519F423
:1004F0000E941F0208950E94640108950F931F93A4
:100500008C010E946902C8010E9422011F910F9173
:1005100008951F920F920FB60F9211242F938F936D
:100520009F93AF93BF938091440190914501A09117
:100530004601B09147018050904CAF4FBF4F809320
:10054000440190934501A0934601B093470127C011
:100550008091440190914501A0914601B0914701DD
:1005600080549F41A040B040809344019093450146
:10057000A0934601B09347018091480190914901B1
:10058000A0914A01B0914B010196A11DB11D80932C
:10059000480190934901A0934A01B0934B01809187
:1005A000440190914501A0914601B09147018154C9
:1005B0009F41A040B04060F6BF91AF919F918F9155
:1005C0002F910F900FBE0F901F9018958FB7F89432
:1005D000209148013091490140914A0150914B01CD
:1005E0008FBFB901CA010895EF92FF920F931F9335
:1005F0007B018C018FB7F8944091480150914901DB
:1006000060914A0170914B018FBF2FB7F894809190
:10061000480190914901A0914A01B0914B012FBF2F
:10062000841B950BA60BB70B8E159F05A007B10772
:1006300060F31F910F91FF90EF900895019759F08B
:10064000019749F0FC01EE0FFF1F31978FB7F89427
:100650003197F1F78FBF0895789484B5826084BD97
:1006600084B5816084BD85B5826085BD85B58160B6
:1006700085BDEEE6F0E0808181608083E1E8F0E016
:10068000808182608083808181608083E0E8F0E007
:10069000808181608083E1EBF0E0808184608083F1
:1006A000E0EBF0E0808181608083EAE7F0E0808128
:1006B0008460808380818260808380818160808388
:1006C0008081806880831092C1000895282F30E0D7
:1006D000C90185579F4FFC01949129583F4FF9015B
:1006E0008491882381F0E82FF0E0E859FF4FE491EE
:1006F000F0E0662329F48081909589238083089512
:100700008081892B80830895482F50E0CA0181564B
:100710009F4FFC012491CA0185579F4FFC01949182
:1007200049585F4FFA0134913323C1F1222331F14B
:10073000233021F4809180008F7705C0243031F47C
:10074000809180008F7D8093800018C0213019F443
:1007500084B58F7704C0223021F484B58F7D84BDA9
:100760000DC0263021F48091B0008F7705C027306E
:1007700029F48091B0008F7D8093B000E32FF0E0EA
:10078000E359FF4FE491F0E0662329F480819095CE
:100790008923808308958081892B80830895482F41
:1007A00050E0CA0181569F4FFC012491CA01855730
:1007B0009F4FFC01949149585F4FFA0134913323C4
:1007C00019F420E030E035C0222331F1233021F448
:1007D000809180008F7705C0243031F480918000B3
:1007E0008F7D8093800018C0213019F484B58F77F5
:1007F00004C0223021F484B58F7D84BD0DC0263025
:1008000021F48091B0008F7705C0273029F48091C2
:10081000B0008F7D8093B000E32FF0E0EE58FF4FE3
:10082000E491F0E0808120E030E0892311F021E0C4
:1008300030E0C9010895EF92FF920F931F937B015F
:100840008C0122E030E040E050E00E940705205E8D
:100850003E45484F5F4FCA01B901A80197010E9468
:100860000705C901DA010197A109B109292F3A2F1A
:100870004B2F552747FD5A950196A11DB11D209379
:10088000C50081508093C400E1ECF0E0808180617C
:1008900080838081886080838081806880831F91CD
:1008A0000F91FF90EF900895982F8091C00085FFE1
:1008B000FCCF9093C600089580914C0190914D011A
:1008C00080589F4F20914E0130914F01821B930B16
:1008D00060E870E00E94D204089540914E0150916A
:1008E0004F0180914C0190914D018417950719F4A7
:1008F0002FEF3FEF0FC0FA01E05BFE4F2081CA01EE
:10090000019660E870E00E94D20490934F018093BA
:100910004E0130E0C901089580914E0190914F0140
:1009200090934D0180934C0108951F920F920FB642
:100930000F9211242F933F934F935F936F937F9365
:100940008F939F93AF93BF93EF93FF934091C60014
:10095000E0914C01F0914D01CF01019660E870E00B
:100960000E94D2049C0180914E0190914F01281762
:10097000390739F0E05BFE4F408330934D012093FF
:100980004C01FF91EF91BF91AF919F918F917F911A
:100990006F915F914F913F912F910F900FBE0F90EC
:1009A0001F90189597FB092E07260AD077FD04D0D3
:1009B00049D006D000201AF4709561957F4F0895B4
:1009C000F6F7909581959F4F0895A1E21A2EAA1BE4
:1009D000BB1BFD010DC0AA1FBB1FEE1FFF1FA217EF
:1009E000B307E407F50720F0A21BB30BE40BF50BEC
:1009F000661F771F881F991F1A9469F76095709575
:100A0000809590959B01AC01BD01CF01089597FBA6
:100A1000092E05260ED057FD04D0D7DF0AD0001CC2
:100A200038F450954095309521953F4F4F4F5F4F8B
:100A30000895F6F790958095709561957F4F8F4F4B
:100A40009F4F0895AA1BBB1B51E107C0AA1FBB1FE4
:100A5000A617B70710F0A61BB70B881F991F5A954A
:100A6000A9F780959095BC01CD010895EE0FFF1F69
:0C0A70000590F491E02D0994F894FFCF5C
:100A7C00706F676F20737469636B20626F756E6340
:100A8C0065212020504F474F20535449434B20425F
:100A9C004F554E434521002B2B2B004154424434DF
:100AAC000041545752004154434E0000000000E8EE
:020ABC00000038
:00000001FF
